:0A144600000102020303040405057F
:100BA900E4F52CF52BF52AF529C203C200C202C2CD
:100BB900011214687E0F7FB88E0A8F0B75120F759C
:100BC90013CA75080F7509D475100F7511F47514CA
:100BD90010751514EE54E07003020CF7752D0075AD
:100BE9002E808E2F8F30C3743E9FFF74109ECF24AA
:100BF90002CF3400FEE48F288E27F526F525F5244B
:100C0900F523F522F521AF28AE27AD26AC25AB2477
:100C1900AA23A922A821C3120EBB502AE52E2524F6
:100C2900F582E52D3523F58374CDF0E4FAF9F8E57D
:100C3900242401F524EA3523F523E93522F522E8B0
:100C49003521F52180C0E4F524F523F522F521AFFE
:100C590028AE27AD26AC25AB24AA23A922A821C3F7
:100C6900120EBB5037E5302524F582E52F3523F5E3
:100C790083E0FFE52E2524F582E52D3523F583EF65
:100C8900F0E4FAF9F8E5242401F524EA3523F523FB
:100C9900E93522F522E83521F52180B3852D0A852C
:100CA9002E0B74B82480FF740F34FFFEC3E5139F25
:100CB900F513E5129EF512C3E50D9FF50DE50C9EA2
:100CC900F50CC3E50F9FF50FE50E9EF50EC3E5097B
:100CD9009FF509E5089EF508C3E5119FF511E51093
:100CE9009EF510C3E5159FF515E5149EF514D2E898
:100CF90043D82090E668E04409F090E65CE0443D82
:100D0900F0D2AF90E680E054F7F0538EF8C203902A
:100D1900E601E054FCF075B3FF75B5FF90E600E01D
:100D29004410F090E67AE054FEF0E490E68AF09000
:100D3900E68BF0300105120717C201300329120EA4
:100D4900FE5024C20312134220001690E682E030BE
:100D5900E704E020E1EF90E682E030E604E020E0FD
:0C0D6900E41212DA12147212147C80C71B
:010D7500225B
:1007170090E6B9E070030207F314700302089C2403
:10072700FE700302093124FB70030207ED14700306
:100737000207E71470030207DB1470030207E124C2
:1007470005600302099D12147440030209A990E68B
:10075700BBE024FE602C14604724FD601614603152
:1007670024067066E50A90E6B3F0E50B90E6B4F070
:100777000209A9E51290E6B3F0E51390E6B4F0029A
:1007870009A9E50C90E6B3F0E50D90E6B4F002098F
:10079700A9E50E90E6B3F0E50F90E6B4F00209A9DB
:1007A70090E6BAE0FF121306AA06A9077B01EA49F9
:1007B7004B600DEE90E6B3F0EF90E6B4F00209A9B6
:1007C70090E6A0E04401F00209A990E6A0E0440108
:1007D700F00209A91214280209A91214580209A93A
:1007E7001214500209A91214160209A9121476400C
:1007F700030209A990E6B8E0247F602B14603C242B
:10080700026003020892A200E433FF25E0FFA20280
:10081700E4334F90E740F0E4A3F090E68AF090E6E7
:100827008B7402F00209A9E490E740F0A3F090E688
:100837008AF090E68B7402F00209A990E6BCE054B6
:100847007EFF7E00E0D3948040067C007D0180041B
:100857007C007D00EC4EFEED4F2446F58274143E7D
:10086700F583E493FF3395E0FEEF24A1FFEE34E632
:100877008F82F583E0540190E740F0E4A3F090E61F
:100887008AF090E68B7402F00209A990E6A0E04492
:1008970001F00209A912147840030209A990E6B8E9
:1008A700E024FE601D240260030209A990E6BAE075
:1008B700B40105C2000209A990E6A0E04401F002D4
:1008C70009A990E6BAE0705990E6BCE0547EFF7E35
:1008D70000E0D3948040067C007D0180047C007D8D
:1008E70000EC4EFEED4F2446F58274143EF583E48A
:1008F70093FF3395E0FEEF24A1FFEE34E68F82F5F8
:1009070083E054FEF090E6BCE05480FF13131354C9
:100917001FFFE0540F2F90E683F0E04420F0020918
:10092700A990E6A0E04401F0807812147A50739001
:10093700E6B8E024FE60202402706790E6BAE0B4CF
:100947000104D200805C90E6BAE06402605490E64D
:10095700A0E04401F0804B90E6BCE0547EFF7E00AF
:10096700E0D3948040067C007D0180047C007D00FC
:10097700EC4EFEED4F2446F58274143EF583E49366
:10098700FF3395E0FEEF24A1FFEE34E68F82F58377
:10099700E04401F0800C120080500790E6A0E0448C
:0909A70001F090E6A0E04480F0AC
:0109B0002224
:0300330002146E46
:04146E0053D8EF322E
:06146800D2001214602204
:01147C00224D
:020EFE00D322FD
:02147200D32283
:02147400D32281
:0814500090E6BAE0F54FD3224B
:1014160090E740E54FF0E490E68AF090E68B04F022
:02142600D322CF
:0814580090E6BAE0F54DD32245
:1014280090E740E54DF0E490E68AF090E68B04F012
:02143800D322BD
:02147600D3227F
:02147800D3227D
:02147A00D3227B
:1000800090E6B9E0120ECC01A9A201A9A30124A413
:1000900000D0A500EAA6010AA70153A801A3A9015F
:1000A0002DAA0140AB0179AC0331AD0382AE040F40
:1000B000B1058FB20492B3058FB40492B5063EB673
:1000C0000492B7063EB80697C106CFC200000715D6
:1000D00090E740E550F0E490E68AF090E68B04F07B
:1000E00090E6A0E04480F002071590E600E0FFC42F
:1000F000540F90E740F0E490E68AF090E68B04F02D
:1001000090E6A0E04480F002071590E740740FF0FD
:10011000E490E68AF090E68B04F090E6A0E044805C
:10012000F002071590E6BAE0F54E02071590E67A60
:10013000E054FEF0E490E68AF090E68BF0020715BA
:1001400090E67AE04401F0E490E68AF090E68BF0E5
:1001500002071590E7407407F0E490E68AF090E615
:100160008B04F090E6A0E04480F07FE87E0312115B
:100170001FD2041212AB02071590E6B5E054FEF050
:1001800090E6BFE090E68AF090E6BEE090E68BF065
:1001900090E6BBE090E6B3F090E6BAE090E6B4F00B
:1001A000020715755001434E0190E6BAE075310023
:1001B000F532A3E0FEE4EE423190E6BEE075330096
:1001C000F534A3E0FEE4EE423390E6B8E064C060AC
:1001D00003020299E5344533700302071590E6A047
:1001E000E020E1F9C3E5349440E5339400500885FC
:1001F0003335853436800675350075364090E6B95E
:10020000E0B4A335E4F53BF53CC3E53C9536E53B6E
:1002100095355060E532253CF582E531353BF58377
:10022000E0FF7440253CF582E434E7F583EFF00508
:100230003CE53C7002053B80D0E4F53BF53CC3E572
:100240003C9536E53B953550187440253CF582E4E5
:1002500034E7F58374CDF0053CE53C7002053B8046
:10026000DDAD367AE779407EE77F40AB07AF32AE4F
:1002700031121040E490E68AF090E68BE536F025E6
:1002800032F532E5353531F531C3E5349536F5349F
:10029000E5339535F5330201D490E6B8E06440606B
:1002A00003020715E53445337003020715E490E6B1
:1002B0008AF090E68BF090E6A0E020E1F990E68BE2
:1002C000E0753500F53690E6B9E0B4A335E4F53BCA
:1002D000F53CC3E53C9536E53B95355038744025F3
:1002E0003CF582E434E7F583E0FFE532253CF58216
:1002F000E531353BF583EFF0053CE53C7002053B0D
:1003000080D0AD367AE779407EE77F40AB07AF32E9
:10031000AE31121244E5362532F532E5353531F588
:1003200031C3E5349536F534E5339535F5330202BE
:10033000A490E6BAE0753100F532A3E0FEE4EE42A7
:100340003190E6BEE0753300F534A3E0FEE4EE4202
:1003500033E53445337003020715E490E68AF090E4
:10036000E68BF090E6A0E020E1F990E68BE07535B1
:1003700000F536FF7CE77D40120EF2E4F534F533EC
:1003800080CF90E6BAE0753100F532A3E0FEE4EEEE
:10039000423190E6BEE0753300F534A3E0FEE4EEB2
:1003A000423390E6BCE04250E53445337003020727
:1003B0001590E6A0E020E1F9C3E5349440E53394DC
:1003C000005008853335853436800675350075361E
:1003D00040AD367AE779407EE77F40AB07AF32AE7B
:1003E00031121040E490E68AF090E68BE536F02575
:1003F00032F532E5353531F531C3E5349536F5342E
:10040000E5339535F53390E6A0E030E19B80F79039
:10041000E6BAE0F54EA3E0FFE490E6BEE0753300F7
:10042000F534A3E0FEE4EE4233E490E68AF090E691
:100430008BF090E6A0E020E1F990E68BE0753500C6
:10044000F53690E678E020E6F9E54C704390E678E2
:10045000E04480F0E54E25E090E679F0853345856F
:1004600034467AE779407547017548E7754940E4B5
:10047000F54AF54B754C01E54C24FA600E14600604
:10048000240770F3C322E4F54CD322E4F54CD322C5
:10049000D32290E6BAE0F54EA3E0FFE490E6BEE09A
:1004A000753300F534A3E0FEE4EE423390E6BCE0A1
:1004B000753700F538A3E0FEE4EE4237E490E68AB3
:1004C000F090E68BF090E6A0E020E1F990E68BE07A
:1004D000753500F53690E6B9E0B4B31B8533458534
:1004E0003446AE33AF3478007C107D017B017AE76F
:1004F0007940120E468027E5342546F546E533352A
:1005000045F545AE33AF3474002538F974103537EE
:10051000A801FC7D017B017AE77940120E4690E646
:10052000B9E064B76017E064B36003020715E5380B
:1005300065467004E5376545600302071590E67867
:10054000E020E6F9E54C704590E678E04480F0E57F
:100550004E25E090E679F075470175481075490021
:10056000E4F54AF54B90E6B9E0B4B305754C0A8062
:1005700003754C01E54C24FA600E146006240770E4
:10058000F3C322E4F54CD322E4F54CD322D32290DA
:10059000E6BAE0F54EA3E0FFE490E6BEE075330076
:1005A000F534A3E0FEE4EE423390E6BCE07537009C
:1005B000F538A3E0FEE4EE423790E678E020E6F975
:1005C000E54C704A90E678E04480F0E54E25E04442
:1005D0000190E679F08537458538467547017548BD
:1005E00010754900E4F54AF54B754C03E54C700471
:1005F000F53D801CE54CB40708E4F54C753D0180E1
:0E0600000FE54CB406E6E4F54C753D018002B2
:10060E00D322AE33AF347AE7794078407CE77D0170
:10061E007B017A107900120E46E490E68AF090E69D
:10062E008BE534F090E6A0E020E1F9E53D24FF22D1
:10063E0090E6BEE0753300F534A3E0FEE4EE4233FF
:10064E0090E6BCE0753700F538A3E0FEE4EE4237E5
:10065E00AE33AF3474002538F974103537FA7B0198
:10066E00C002C0017AE7794078407CE77D01D00175
:10067E00D002120E46E490E68AF090E68BE534F056
:10068E0090E6A0E020E1F9C32290E6BAE0753900C9
:10069E00F53AA3E0FEE4EE4239A3E0753700F538F3
:1006AE00A3E0FEE4EE4237E53864904537700585E9
:1006BE003A908053E53864B04537704B853AB08038
:1006CE004690E6BCE0753700F538A3E0FEE4EE4256
:1006DE0037E538649045377008AF90F5398F3A801A
:1006EE000EE53864B045377006AFB0F5398F3A90E5
:1006FE00E740E53AF0E490E68AF090E68BE534F0D8
:08070E0090E6A0E020E1F9C330
:0107160022C0
:10135600C0E0C083C08290E6B5E04401F0D20153FC
:0F13660091EF90E65D7401F0D082D083D0E03239
:1013EA00C0E0C083C0825391EF90E65D7404F0D0F0
:0613FA0082D083D0E03236
:10140000C0E0C083C0825391EF90E65D7402F0D0DB
:0614100082D083D0E0321F
:1011D600C0E0C083C08290E680E030E70E85080C50
:1011E60085090D85100E85110F800C85100C851153
:1011F6000D85080E85090F5391EF90E65D7410F08A
:07120600D082D083D0E0325A
:1013D200C0E0C083C082D2035391EF90E65D7408EF
:0813E200F0D082D083D0E0328C
:10120D00C0E0C083C08290E680E030E70E85080C18
:10121D0085090D85100E85110F800C85100C85111B
:10122D000D85080E85090F5391EF90E65D7420F042
:07123D00D082D083D0E03223
:01147D00323C
:01147E00323B
:01147F00323A
:011480003239
:011481003238
:011482003237
:011483003236
:011484003235
:011485003234
:011486003233
:011487003232
:011488003231
:011489003230
:01148A00322F
:01148B00322E
:01148C00322D
:01148D00322C
:01148E00322B
:01148F00322A
:011490003229
:011491003228
:011492003227
:011493003226
:011494003225
:011495003224
:011496003223
:011497003222
:011498003221
:011499003220
:01149A00321F
:01149B00321E
:01149C00321D
:01149D00321C
:01149E00321B
:01149F00321A
:0114A0003219
:06108B00AB07AA06AC054C
:10109100E4FDE5506010EA7E000DEE2400F582E4E7
:1010A1003412F583EAF0EBAE050D74002EF582E4FF
:1010B1003412F583EBF0AF050D74002FF582E434A3
:1010C10012F583ECF07A127B00AF4E121394AF4EFF
:0310D10012119E5B
:0110D40022F9
:0C0EF200AB05AA04AD07AF4E121394220A
:0A1244008E3F8F408D418A428B439C
:10124E00E4F544E544C3954150200540E540AE3FEA
:10125E007002053F14FFE5432544F582E43542F55F
:0A126E0083E0FD12108B054480D9C7
:011278002253
:0A1040008E3F8F408D418A428B43A2
:10104A00E4FDF544E5506012E53FFF7E000DEE2415
:10105A0000F582E43412F583EFF0E540AE050D7435
:10106A00002EF582E43412F583E540F07A127B0013
:10107A00AF4E1213B3AB43AA42AD41AF4E12137532
:01108A002243
:100FB8001201000200000040470502100000010273
:100FC80000010A060002000000400100090220009A
:100FD800010100A0320904000002FF00000007051B
:100FE8000202000200070586020002000902200032
:100FF800010100A0320904000002FF0000000705FB
:1010080001024000000705810240000004030904B2
:1010180010034300790070007200650073007300CC
:10102800160345005A002D005500530042002000C9
:081038004600580032000000E0
:02130600A90735
:10130800AE14AF158F828E83A3E064037017AD010E
:1013180019ED7001228F828E83E07C002FFDEC3E58
:08132800FEAF0580DFE4FEFFCB
:01133000229A
:08146000E4F54CD2E9D2AF2201
:10119E00AD0790E678E020E6F9C2E990E678E04403
:1011AE0080F0ED25E090E679F090E678E030E0F919
:1011BE0090E678E04440F090E678E020E6F990E69C
:0811CE0078E030E1D6D2E922FD
:10116500AC0790E678E020E6F9E54C702A90E67841
:10117500E04480F0EC25E090E679F0AF0575450098
:101185008F46AF03A9077547018A488949E4F54A9F
:09119500F54B754C01D322C32275
:10127900AC07E54C702A90E678E04480F0EC25E074
:1012890090E679F0AF057545008F46AF03A907755C
:1012990047018A488949E4F54AF54B754C0AD32236
:0212A900C3225E
:1010D500AC0790E678E020E6F9E54C703B90E678C1
:1010E500E04480F0EC25E0440190E679F0AF057529
:1010F50045008F46AF03A9077547018A488949E42A
:10110500F54AF54B754C03E5466401454570079076
:0A111500E678E04420F0D322C32264
:03004B000209B1F6
:1009B100C0E0C083C082C0D075D018E54C6401701E
:1009C1004590E678E030E131AB47AA48A949054BAB
:1009D100E54BAE4A7002054A14F5828E83120E6C05
:1009E10090E679F0E54B65467004E54A654560039C
:1009F100020B9D754C05020B9D90E678E04440F09A
:100A0100754C07020B9DE54C640A704590E678E051
:100A110030E131AB47AA48A949054BE54BAE4A70D5
:100A210002054A14F5828E83120E6C90E679F0E588
:100A31004B65467004E54A65456003020B9D754CA4
:100A410009020B9D90E678E04440F0754C07020BDB
:100A51009D90E678E030E20AE04440F0754C0602F1
:100A61000B9D90E678E020E116E54C64026010E50C
:100A71004C640B600AE04440F0754C07020B9DE5A5
:100A81004C24FE606724FD7003020B8E24FC70036E
:100A9100020B9A24FE7003020B4114603424096096
:100AA10003020B9D90E679E0AB47AA48A949AC4AFD
:100AB100AD4B8D828C83120E99754C02E546640113
:100AC10045456003020B9D90E678E04420F0020B5F
:100AD1009D90E679E0AB47AA48A949AC4AAD4B8D58
:100AE100828C83120E99754C0B020B9DE54624FEF8
:100AF100FFE54534FFFEEFB54B0BEEB54A0790E637
:100B010078E04420F0E54624FFFFE54534FFFEEFA1
:100B1100B54B0EEEB54A0A754C0090E678E04440BC
:100B2100F090E679E0AB47AA48A949AC4AAD4B8DB4
:100B3100828C83120E99054BE54B7002054A805C4D
:100B4100E54624FEFFE54534FFFEEFB54B0BEEB560
:100B51004A0790E678E04420F0E54624FFFFE545AA
:100B610034FFFEEFB54B07EEB54A03754C0090E636
:100B710079E0AB47AA48A949AC4AAD4B8D828C8339
:100B8100120E99054BE54B7002054A800F90E678ED
:100B9100E04440F0754C008003754C005391DFD068
:080BA100D0D082D083D0E032F5
:101375001210D5E54C24FA6010146007240770F3A9
:0F1385007F0822E4F54C7F0722E4F54C7F062217
:10139400121165E54C24FA6010146007240770F3F9
:0F13A4007F0822E4F54C7F0722E4F54C7F0622F8
:1013B300121279E54C24FA6010146007240770F3C5
:0F13C3007F0822E4F54C7F0722E4F54C7F0622D9
:1012DA0090E682E030E004E020E60B90E682E0301F
:1012EA00E119E030E71590E680E04401F07F147ED2
:0C12FA000012111F90E680E054FEF0226C
:10111F008E3F8F4090E600E054187012E540240196
:10112F00FFE4353FC313F53FEF13F540801590E60D
:10113F0000E05418FFBF100BE54025E0F540E53FF8
:10114F0033F53FE5401540AE3F7002153F4E600549
:06115F0012133180EE22A4
:1012AB0030040990E680E0440AF0800790E680E085
:1012BB004408F07FDC7E0512111F90E65D74FFF091
:0F12CB0090E65FF05391EF90E680E054F7F02249
:03004300020F00A9
:03005300020F0099
:100F000002135600021400000213EA000213D2007A
:100F10000211D60002120D0002147D0002147E00A0
:100F200002147F0002148000021481000214820067
:100F30000214830002148400021485000214860047
:100F40000214870002147E00021488000214890033
:100F500002148A0002148B0002148C0002148D000B
:100F600002148E0002147E0002147E0002147E0021
:100F700002148F00021490000214910002149200D7
:100F800002149300021494000214950002149600B7
:100F900002149700021498000214990002149A0097
:100FA00002149B0002149C0002149D0002149E0077
:080FB00002149F000214A000CE
:101331007400F58690FDA57C05A3E582458370F9CF
:011341002289
:1013420090E682E044C0F090E681F043870100001D
:041352000000002275
:0300000002143AAD
:0C143A00787FE4F6D8FD758150020BA904
:100D7600E709F608DFFA8046E709F208DFFA803E5F
:100D860088828C83E709F0A3DFFA8032E309F6084C
:100D9600DFFA8078E309F208DFFA807088828C83B4
:100DA600E309F0A3DFFA806489828A83E0A3F60868
:100DB600DFFA805889828A83E0A3F208DFFA804C42
:100DC60080D280FA80C680D4806980F28033801019
:100DD60080A680EA809A80A880DA80E280CA803382
:100DE60089828A83ECFAE493A3C8C582C8CCC583FA
:100DF600CCF0A3C8C582C8CCC583CCDFE9DEE780CA
:100E06000D89828A83E493A3F608DFF9ECFAA9F048
:100E1600EDFB2289828A83ECFAE0A3C8C582C8CC9E
:100E2600C583CCF0A3C8C582C8CCC583CCDFEADEB7
:100E3600E880DB89828A83E493A3F208DFF980CC19
:100E460088F0EF60010E4E60C388F0ED2402B40412
:100E56000050B9F582EB2402B4040050AF232345B9
:060E66008223900DC6730B
:100E6C00BB010CE58229F582E5833AF583E022503B
:100E7C0006E92582F8E622BBFE06E92582F8E22285
:0D0E8C00E58229F582E5833AF583E493229F
:100E9900F8BB010DE58229F582E5833AF583E8F08F
:100EA900225006E92582C8F622BBFE05E92582C83B
:020EB900F22223
:100EBB00EB9FF5F0EA9E42F0E99D42F0E89C45F08D
:010ECB002204
:100ECC00D083D082F8E4937012740193700DA3A3B5
:100EDC0093F8740193F5828883E4737402936860C9
:060EEC00EFA3A3A380DFC9
:00000001FF
