:1009850060801A0001010101010101070002020056
:100995000000000007020207070707070000000024
:1009A5000000003F010101010101010702020000F1
:1009B50000000000070407070707070700000000FD
:1009C5000000003F010111B8010101070202070102
:1009D5000000000007020707070707070000002DB2
:1009E5000000003F01013F0101010107020207026A
:1009F50002020200070407070707070700002D008A
:100A05000000003F60241A8700000000000000007D
:100A150000000000000000000000000000000000D1
:100A2500000000000000000000000000471A80E000
:060A3500000007EE4E0078
:100A4A0090E60174EEF090E6F574FFF0901A80E0FB
:100A5A0090E6F3F0901A81E090E6C3F0901A82E0F3
:100A6A0090E6C1F0901A83E090E6C2F0901A85E011
:100A7A0090E6C0F0901A86E090E6F4F075AF07743D
:100A8A001AF59A7400F59B759DE4E4F59EFF90E6CD
:100A9A007BE090E67CF00FBF80F490E67174FFF083
:100AAA00F5B490E672E04480F043B680000000E4BA
:100ABA0090E6C4F000000090E6C5F0901A87E09036
:100ACA00E6C6F0901A88E090E6C7F0901A89E0909E
:100ADA00E6C8F0901A8AE090E6C9F0901A8BE09086
:100AEA00E6CAF0901A8CE090E6CBF0901A8DE0906E
:0B0AFA00E6CCF0901A8EE090E6CDF004
:010B050022CD
:0A0F010000010202030304040505C9
:1007B400E4F513F512F511F510C203C200C202C22A
:1007C40001120B927E017F008E238F24752B0175FD
:1007D4002C14752101752220752901752A42752D65
:1007E40001752E6490E680E030E70E852125852290
:1007F40026852927852A28800C852925852A26856A
:100804002127852228EE54E0700302091F75140085
:100814007515807E017F008E168F17C374B89FFFF5
:1008240074019ECF2402CF3400FEE48F0F8E0EF5A8
:100834000DF50CF50BF50AF509F508AF0FAE0EAD85
:100844000DAC0CAB0BAA0AA909A808C3120EF050F0
:1008540026E515250BF582E514350AF58374CDF0EC
:10086400E50B2401F50BE4350AF50AE43509F5092D
:10087400E43508F50880C4E4F50BF50AF509F50834
:10088400AF0FAE0EAD0DAC0CAB0BAA0AA909A808AC
:10089400C3120EF05033E517250BF582E516350A21
:1008A400F583E0FFE515250BF582E514350AF5839C
:1008B400EFF0E50B2401F50BE4350AF50AE43509FC
:1008C400F509E43508F50880B785142385152474E3
:1008D400002480FF740134FFFEC3E52C9FF52CE552
:1008E4002B9EF52BC3E5269FF526E5259EF525C30E
:1008F400E5289FF528E5279EF527C3E5229FF522E5
:10090400E5219EF521C3E52A9FF52AE5299EF529CF
:10091400C3E52E9FF52EE52D9EF52DD2E843D82074
:1009240090E668E04409F090E65CE0443DF0D2AF24
:1009340090E680E020E105D207120DAE90E680E05B
:1009440054F7F0538EF8C203300105120590C2012A
:10095400300329120F135024C203120E452000162F
:1009640090E682E030E704E020E1EF90E682E030B8
:10097400E604E020E0E4120DDD120F15120E89806A
:01098400C7AB
:1005900090E6B9E070030206411470030206BE241F
:1005A000FE700302074124FB700302063B14700334
:1005B000020635146073146076240560030207A0F8
:1005C000120F1740030207AC90E6BBE024FE602246
:1005D00014603324FD601114602224067048E52362
:1005E00090E6B3F0E5248037E52B90E6B3F0E52CF8
:1005F000802DE52590E6B3F0E5268023E52790E6FB
:10060000B3F0E528801990E6BAE0FF120E09AA06B9
:10061000A9077B01EA494B600DEE90E6B3F0EF903D
:10062000E6B4F00207AC0207A5120EDE0207AC1218
:100630000F0B0207AC120CFE0207AC120ECC020725
:10064000AC120F1940030207AC90E6B8E0247F60BB
:100650001514601924027063A200E43325E0FFA2A0
:1006600002E4334F8041E490E740F0803F90E6BCE5
:10067000E0547EFF7E00E0D394807C0040047D0146
:1006800080027D00EC4EFEED4F2401F582740F3E9A
:10069000F583E493FF3395E0FEEF24A1FFEE34E60B
:1006A0008F82F583E0540190E740F0E4A3F090E6F8
:1006B0008AF090E68B7402F00207AC0207A5120FD5
:1006C0001B40030207AC90E6B8E024FE601624024B
:1006D00060030207AC90E6BAE0B40105C20002076D
:1006E000AC0207A590E6BAE0705590E6BCE0547EF7
:1006F000FF7E00E0D394807C0040047D0180027D79
:1007000000EC4EFEED4F2401F582740F3EF583E4BC
:1007100093FF3395E0FEEF24A1FFEE34E68F82F5E0
:1007200083E054FEF090E6BCE05480131313541F92
:10073000FFE0540F2F90E683F0E04420F0806D80BE
:1007400064120F1D506690E6B8E024FE6019240282
:10075000705A90E6BAE0B40104D200804F90E6BA35
:10076000E064026047803E90E6BCE0547EFF7E007D
:10077000E0D394807C0040047D0180027D00EC4E3B
:10078000FEED4F2401F582740F3EF583E493FF33B1
:1007900095E0FEEF24A1FFEE34E68F82F58380081A
:1007A000120300500790E6A0E04401F090E6A0E0BC
:0307B0004480F092
:0107B3002223
:03003300020BFCC1
:040BFC0053D8EF32A9
:100100001201000200000040B404031000000102CC
:020110000001EC
:0A0114000A0600020000004001008E
:1001200009022000010100A0320904000002FF00C2
:100130000000070502020002000705860200020017
:1001420009022000010100A0320904000002FF00A0
:100152000000070502024000000705860240000079
:100164000403090410034300790070007200650061
:1001740073007300400345005A002D0055005300DE
:100184004200200046005800320020004200610076
:1001940063006B00200074006F00200042004100E7
:1001A40063006B0020004500780061006D00700062
:0601B4006C006500000074
:0E0A3B0002370000C105C10602320000C104EE
:100B9200000000120A4A00000090E61274A0F00061
:100BA200000090E61474E0F000000090E604748007
:100BB200F00000007402F00000007406F000000073
:100BC200E4F000000090E618F00000007410F0005D
:100BD200000090E61A7408F000000090E6D274015A
:100BE200F0000000E490E672F090E670F07580FC90
:0A0BF20075B2FF75B61875B1FE224A
:100E8900300413E5BB30E70EE5AB20E109E4F5BB1F
:070E99000000000000002230
:020F1300D322E7
:020F1500D322E5
:020F1700D322E3
:100CFE0090E680E030E71800000090E6247402F0E1
:100D0E00000000E490E625F0000000D206801600F8
:100D1E000000E490E624F000000090E6257440F018
:0D0D2E00000000C20690E6BAE0F536D322C0
:100ECC0090E740E536F0E490E68AF090E68B04F08B
:020EDC00D3221F
:080F0B0090E6BAE0F531D322B3
:100EDE0090E740E531F0E490E68AF090E68B04F07E
:020EEE00D3220D
:020F1900D322E1
:020F1B00D322DF
:020F1D00D322DD
:1003000090E6B9E0244EB40800400302058C900347
:100310001C75F003A4C58325F0C583730203340262
:1003200003890203F202042A02046C020489020413
:10033000B50204C890E6A0E04480F0120A4A90E6B4
:10034000047480F00000007402F00000007406F0F5
:10035000000000E4F000000090E618F000000074D7
:1003600010F000000090E61A7408F0000000D204BB
:1003700053B1EFC280D281120E3443B1100000009D
:1003800053B1F700000002046690E6A0E04480F05C
:10039000000000C20490E6027408F000000090E63D
:1003A0000374E0F000000090E670E04480F090E616
:1003B0000174E3F000000090E6047480F000000097
:1003C0007402F00000007404F00000007406F000F5
:1003D00000007408F0000000E4F000000090E6184F
:1003E000F00000007410F000000090E61A744CF069
:1003F000807490E6D1E090E740F090E6D0E090E79E
:1004000041F090E6CFE090E742F090E6CEE090E752
:1004100043F090E6A7E090E744F0E490E68AF0909D
:10042000E68B7405F0C20402058EE490E68AF09033
:10043000E68BF090E6A0E020E1F900000090E743B1
:10044000E090E6CEF000000090E742E090E6CFF0CA
:1004500000000090E741E090E6D0F000000090E757
:1004600040E090E6D1F000000002058EE5BB30E7E9
:10047000FB90E6BCE0139280E0C31313928190E6F8
:10048000BAE090E6F1F002058EE5BB30E7FBD280E2
:10049000C28190E6F1E0E5BB30E7FB90E6F2E09048
:1004A000E740F0A374AAF0E490E68AF090E68B743B
:1004B00002F002058EC28200000000000000000071
:1004C000000000D28202058E90E74074B9F0A206C7
:1004D000E433A3F090E6BDE0FE90E6BCE07C0024AF
:1004E00000F535EC3EF534E535453470030205780A
:1004F000E5BB30E7F2E5AC20E0ED300623D3E5358F
:100500009400E5349402403B90E6D07402F0000081
:1005100000E490E6D1F0000000752F02F530803A3B
:10052000D3E5359440E53494004018E490E6D0F0EB
:1005300000000090E6D17440F0000000752F00F537
:10054000308017E53490E6D0F0000000E53590E605
:10055000D1F000000085342FF53075BB0600000097
:10056000E5BB30E7FB000000C3E5359530F535E528
:1005700034952FF5340204E7E490E68AF090E68B98
:0F0580007402F090E6A0E04480F08002D322C322
:01058F002249
:100E5900C0E0C083C082D2015391EF90E65D740176
:080E6900F0D082D083D0E0320A
:100EA000C0E0C083C0825391EF90E65D7404F0D03F
:060EB00082D083D0E03285
:100EB600C0E0C083C0825391EF90E65D7402F0D02B
:060EC60082D083D0E0326F
:100D7800C0E0C083C082852925852A2685268285EC
:100D88002583A37402F0852127852228852882855A
:100D98002783A37407F05391EF90E65D7410F0D0A9
:060DA80082D083D0E0328E
:100E7100C0E0C083C082D2035391EF90E65D740855
:080E8100F0D082D083D0E032F2
:100D3B00C0E0C083C08290E680E030E720852125AB
:100D4B00852226852682852583A37402F085292793
:100D5B00852A28852882852783A37407F05391EF72
:0D0D6B0090E65D7420F0D082D083D0E0329D
:010F1F00329F
:010F2000329E
:010F2100329D
:010F2200329C
:010F2300329B
:010F2400329A
:010F25003299
:010F26003298
:010F27003297
:010F28003296
:010F29003295
:010F2A003294
:010F2B003293
:010F2C003292
:010F2D003291
:010F2E003290
:010F2F00328F
:010F3000328E
:010F3100328D
:010F3200328C
:010F3300328B
:010F3400328A
:010F35003289
:010F36003288
:010F37003287
:010F38003286
:010F39003285
:010F3A003284
:010F3B003283
:010F3C003282
:010F3D003281
:010F3E003280
:010F3F00327F
:010F4000327E
:010F4100327D
:010F4200327C
:100DDD0090E682E030E004E020E60B90E682E03021
:100DED00E119E030E71590E680E04401F07F147ED4
:0C0DFD0000120CB890E680E054FEF022DA
:100DAE0030070990E680E0440AF0800790E680E084
:100DBE004408F07FDC7E05120CB890E65D74FFF0FF
:0F0DCE0090E65FF05391EF90E680E054F7F0224B
:020E0900A90737
:100E0B00AE2DAF2E8F828E83A3E064037017AD01DE
:100E1B0019ED7001228F828E83E07C002FFDEC3E5A
:080E2B00FEAF0580DFE4FEFFCD
:010E3300229C
:100E34007400F58690FDA57C05A3E582458370F9D1
:010E4400228B
:100E450090E682E044C0F090E681F043870100001F
:040E55000000002277
:100CB8008E188F1990E600E054187012E519240177
:100CC800FFE43518C313F518EF13F519801590E6EE
:100CD80000E05418FFBF100BE51925E0F519E518D9
:100CE80033F518E5191519AE18700215184E600578
:060CF800120E3480EE2212
:03004300020C00AC
:03005300020C009C
:100C0000020E5900020EB600020EA000020E710084
:100C1000020D7800020D3B00020F1F00020F2000A2
:100C2000020F2100020F2200020F2300020F2400F6
:100C3000020F2500020F2600020F2700020F2800D6
:100C4000020F2900020F2000020F2A00020F2B00C2
:100C5000020F2C00020F2D00020F2E00020F2F009A
:100C6000020F3000020F2000020F2000020F2000B0
:100C7000020F3100020F3200020F3300020F340066
:100C8000020F3500020F3600020F3700020F380046
:100C9000020F3900020F3A00020F3B00020F3C0026
:100CA000020F3D00020F3E00020F3F00020F400006
:080CB000020F4100020F420097
:03000000020B06EA
:0C0B0600787FE4F6D8FD758138020B4DB5
:100EF000EB9FF5F0EA9E42F0E99D42F0E89C45F058
:010F000022CE
:100B12000207B4E493A3F8E493A34003F68001F23E
:100B220008DFF48029E493A3F85407240CC8C333E4
:100B3200C4540F4420C8834004F456800146F6DFB3
:100B4200E4800B0102040810204080900985E47EB5
:100B5200019360BCA3FF543F30E509541FFEE493A8
:100B6200A360010ECF54C025E060A840B8E493A36F
:100B7200FAE493A3F8E493A3C8C582C8CAC583CA9A
:100B8200F0A3C8C582C8CAC583CADFE9DEE780BE52
:010A490000AC
:00000001FF
